{
  "_format": "hh-sol-artifact-1",
  "contractName": "MinterNFT",
  "sourceName": "contracts/MinterNFT.sol",
  "abi": [
    {
      "inputs": [
        {
          "internalType": "string",
          "name": "_name",
          "type": "string"
        },
        {
          "internalType": "string",
          "name": "_symbol",
          "type": "string"
        }
      ],
      "stateMutability": "nonpayable",
      "type": "constructor"
    },
    {
      "anonymous": false,
      "inputs": [
        {
          "indexed": true,
          "internalType": "address",
          "name": "owner",
          "type": "address"
        },
        {
          "indexed": true,
          "internalType": "address",
          "name": "approved",
          "type": "address"
        },
        {
          "indexed": true,
          "internalType": "uint256",
          "name": "tokenId",
          "type": "uint256"
        }
      ],
      "name": "Approval",
      "type": "event"
    },
    {
      "anonymous": false,
      "inputs": [
        {
          "indexed": true,
          "internalType": "address",
          "name": "owner",
          "type": "address"
        },
        {
          "indexed": true,
          "internalType": "address",
          "name": "operator",
          "type": "address"
        },
        {
          "indexed": false,
          "internalType": "bool",
          "name": "approved",
          "type": "bool"
        }
      ],
      "name": "ApprovalForAll",
      "type": "event"
    },
    {
      "anonymous": false,
      "inputs": [
        {
          "indexed": true,
          "internalType": "bytes32",
          "name": "role",
          "type": "bytes32"
        },
        {
          "indexed": true,
          "internalType": "bytes32",
          "name": "previousAdminRole",
          "type": "bytes32"
        },
        {
          "indexed": true,
          "internalType": "bytes32",
          "name": "newAdminRole",
          "type": "bytes32"
        }
      ],
      "name": "RoleAdminChanged",
      "type": "event"
    },
    {
      "anonymous": false,
      "inputs": [
        {
          "indexed": true,
          "internalType": "bytes32",
          "name": "role",
          "type": "bytes32"
        },
        {
          "indexed": true,
          "internalType": "address",
          "name": "account",
          "type": "address"
        },
        {
          "indexed": true,
          "internalType": "address",
          "name": "sender",
          "type": "address"
        }
      ],
      "name": "RoleGranted",
      "type": "event"
    },
    {
      "anonymous": false,
      "inputs": [
        {
          "indexed": true,
          "internalType": "bytes32",
          "name": "role",
          "type": "bytes32"
        },
        {
          "indexed": true,
          "internalType": "address",
          "name": "account",
          "type": "address"
        },
        {
          "indexed": true,
          "internalType": "address",
          "name": "sender",
          "type": "address"
        }
      ],
      "name": "RoleRevoked",
      "type": "event"
    },
    {
      "anonymous": false,
      "inputs": [
        {
          "indexed": true,
          "internalType": "address",
          "name": "from",
          "type": "address"
        },
        {
          "indexed": true,
          "internalType": "address",
          "name": "to",
          "type": "address"
        },
        {
          "indexed": true,
          "internalType": "uint256",
          "name": "tokenId",
          "type": "uint256"
        }
      ],
      "name": "Transfer",
      "type": "event"
    },
    {
      "inputs": [],
      "name": "DEFAULT_ADMIN_ROLE",
      "outputs": [
        {
          "internalType": "bytes32",
          "name": "",
          "type": "bytes32"
        }
      ],
      "stateMutability": "view",
      "type": "function"
    },
    {
      "inputs": [],
      "name": "MINTER_ROLE",
      "outputs": [
        {
          "internalType": "bytes32",
          "name": "",
          "type": "bytes32"
        }
      ],
      "stateMutability": "view",
      "type": "function"
    },
    {
      "inputs": [
        {
          "internalType": "address",
          "name": "to",
          "type": "address"
        },
        {
          "internalType": "uint256",
          "name": "tokenId",
          "type": "uint256"
        }
      ],
      "name": "approve",
      "outputs": [],
      "stateMutability": "nonpayable",
      "type": "function"
    },
    {
      "inputs": [
        {
          "internalType": "address",
          "name": "owner",
          "type": "address"
        }
      ],
      "name": "balanceOf",
      "outputs": [
        {
          "internalType": "uint256",
          "name": "",
          "type": "uint256"
        }
      ],
      "stateMutability": "view",
      "type": "function"
    },
    {
      "inputs": [
        {
          "internalType": "address[]",
          "name": "tos",
          "type": "address[]"
        },
        {
          "internalType": "string[]",
          "name": "uris",
          "type": "string[]"
        }
      ],
      "name": "batchMint",
      "outputs": [],
      "stateMutability": "nonpayable",
      "type": "function"
    },
    {
      "inputs": [
        {
          "internalType": "uint256",
          "name": "tokenId",
          "type": "uint256"
        }
      ],
      "name": "getApproved",
      "outputs": [
        {
          "internalType": "address",
          "name": "",
          "type": "address"
        }
      ],
      "stateMutability": "view",
      "type": "function"
    },
    {
      "inputs": [
        {
          "internalType": "bytes32",
          "name": "role",
          "type": "bytes32"
        }
      ],
      "name": "getRoleAdmin",
      "outputs": [
        {
          "internalType": "bytes32",
          "name": "",
          "type": "bytes32"
        }
      ],
      "stateMutability": "view",
      "type": "function"
    },
    {
      "inputs": [
        {
          "internalType": "bytes32",
          "name": "role",
          "type": "bytes32"
        },
        {
          "internalType": "uint256",
          "name": "index",
          "type": "uint256"
        }
      ],
      "name": "getRoleMember",
      "outputs": [
        {
          "internalType": "address",
          "name": "",
          "type": "address"
        }
      ],
      "stateMutability": "view",
      "type": "function"
    },
    {
      "inputs": [
        {
          "internalType": "bytes32",
          "name": "role",
          "type": "bytes32"
        }
      ],
      "name": "getRoleMemberCount",
      "outputs": [
        {
          "internalType": "uint256",
          "name": "",
          "type": "uint256"
        }
      ],
      "stateMutability": "view",
      "type": "function"
    },
    {
      "inputs": [
        {
          "internalType": "bytes32",
          "name": "role",
          "type": "bytes32"
        },
        {
          "internalType": "address",
          "name": "account",
          "type": "address"
        }
      ],
      "name": "grantRole",
      "outputs": [],
      "stateMutability": "nonpayable",
      "type": "function"
    },
    {
      "inputs": [
        {
          "internalType": "bytes32",
          "name": "role",
          "type": "bytes32"
        },
        {
          "internalType": "address",
          "name": "account",
          "type": "address"
        }
      ],
      "name": "hasRole",
      "outputs": [
        {
          "internalType": "bool",
          "name": "",
          "type": "bool"
        }
      ],
      "stateMutability": "view",
      "type": "function"
    },
    {
      "inputs": [
        {
          "internalType": "address",
          "name": "owner",
          "type": "address"
        },
        {
          "internalType": "address",
          "name": "operator",
          "type": "address"
        }
      ],
      "name": "isApprovedForAll",
      "outputs": [
        {
          "internalType": "bool",
          "name": "",
          "type": "bool"
        }
      ],
      "stateMutability": "view",
      "type": "function"
    },
    {
      "inputs": [],
      "name": "name",
      "outputs": [
        {
          "internalType": "string",
          "name": "",
          "type": "string"
        }
      ],
      "stateMutability": "view",
      "type": "function"
    },
    {
      "inputs": [
        {
          "internalType": "uint256",
          "name": "tokenId",
          "type": "uint256"
        }
      ],
      "name": "ownerOf",
      "outputs": [
        {
          "internalType": "address",
          "name": "",
          "type": "address"
        }
      ],
      "stateMutability": "view",
      "type": "function"
    },
    {
      "inputs": [
        {
          "internalType": "bytes32",
          "name": "role",
          "type": "bytes32"
        },
        {
          "internalType": "address",
          "name": "account",
          "type": "address"
        }
      ],
      "name": "renounceRole",
      "outputs": [],
      "stateMutability": "nonpayable",
      "type": "function"
    },
    {
      "inputs": [
        {
          "internalType": "bytes32",
          "name": "role",
          "type": "bytes32"
        },
        {
          "internalType": "address",
          "name": "account",
          "type": "address"
        }
      ],
      "name": "revokeRole",
      "outputs": [],
      "stateMutability": "nonpayable",
      "type": "function"
    },
    {
      "inputs": [
        {
          "internalType": "address",
          "name": "to",
          "type": "address"
        },
        {
          "internalType": "string",
          "name": "uri",
          "type": "string"
        }
      ],
      "name": "safeMint",
      "outputs": [],
      "stateMutability": "nonpayable",
      "type": "function"
    },
    {
      "inputs": [
        {
          "internalType": "address",
          "name": "from",
          "type": "address"
        },
        {
          "internalType": "address",
          "name": "to",
          "type": "address"
        },
        {
          "internalType": "uint256",
          "name": "tokenId",
          "type": "uint256"
        }
      ],
      "name": "safeTransferFrom",
      "outputs": [],
      "stateMutability": "nonpayable",
      "type": "function"
    },
    {
      "inputs": [
        {
          "internalType": "address",
          "name": "from",
          "type": "address"
        },
        {
          "internalType": "address",
          "name": "to",
          "type": "address"
        },
        {
          "internalType": "uint256",
          "name": "tokenId",
          "type": "uint256"
        },
        {
          "internalType": "bytes",
          "name": "_data",
          "type": "bytes"
        }
      ],
      "name": "safeTransferFrom",
      "outputs": [],
      "stateMutability": "nonpayable",
      "type": "function"
    },
    {
      "inputs": [
        {
          "internalType": "address",
          "name": "operator",
          "type": "address"
        },
        {
          "internalType": "bool",
          "name": "approved",
          "type": "bool"
        }
      ],
      "name": "setApprovalForAll",
      "outputs": [],
      "stateMutability": "nonpayable",
      "type": "function"
    },
    {
      "inputs": [
        {
          "internalType": "bytes4",
          "name": "interfaceId",
          "type": "bytes4"
        }
      ],
      "name": "supportsInterface",
      "outputs": [
        {
          "internalType": "bool",
          "name": "",
          "type": "bool"
        }
      ],
      "stateMutability": "view",
      "type": "function"
    },
    {
      "inputs": [],
      "name": "symbol",
      "outputs": [
        {
          "internalType": "string",
          "name": "",
          "type": "string"
        }
      ],
      "stateMutability": "view",
      "type": "function"
    },
    {
      "inputs": [
        {
          "internalType": "uint256",
          "name": "tokenId",
          "type": "uint256"
        }
      ],
      "name": "tokenURI",
      "outputs": [
        {
          "internalType": "string",
          "name": "",
          "type": "string"
        }
      ],
      "stateMutability": "view",
      "type": "function"
    },
    {
      "inputs": [
        {
          "internalType": "address",
          "name": "from",
          "type": "address"
        },
        {
          "internalType": "address",
          "name": "to",
          "type": "address"
        },
        {
          "internalType": "uint256",
          "name": "tokenId",
          "type": "uint256"
        }
      ],
      "name": "transferFrom",
      "outputs": [],
      "stateMutability": "nonpayable",
      "type": "function"
    }
  ],
  "bytecode": "0x60806040523480156200001157600080fd5b506040516200463e3803806200463e83398181016040528101906200003791906200058b565b81818160009080519060200190620000519291906200033e565b5080600190805190602001906200006a9291906200033e565b505050620000826000801b33620000bc60201b60201c565b620000b47f9f2df0fed2c77648de5860a4cc508cd0818c85b8b8a1ab4ceeef8d981c8956a633620000bc60201b60201c565b505062000675565b620000d382826200010460201b62000e2b1760201c565b620000ff8160086000858152602001908152602001600020620001f660201b62000f0c1790919060201c565b505050565b6200011682826200022e60201b60201c565b620001f25760016007600084815260200190815260200160002060000160008373ffffffffffffffffffffffffffffffffffffffff1673ffffffffffffffffffffffffffffffffffffffff16815260200190815260200160002060006101000a81548160ff021916908315150217905550620001976200029960201b60201c565b73ffffffffffffffffffffffffffffffffffffffff168173ffffffffffffffffffffffffffffffffffffffff16837f2f8788117e7eff1d82e926ec794901d17c78024a50270940304540a733656f0d60405160405180910390a45b5050565b600062000226836000018373ffffffffffffffffffffffffffffffffffffffff1660001b620002a160201b60201c565b905092915050565b60006007600084815260200190815260200160002060000160008373ffffffffffffffffffffffffffffffffffffffff1673ffffffffffffffffffffffffffffffffffffffff16815260200190815260200160002060009054906101000a900460ff16905092915050565b600033905090565b6000620002b583836200031b60201b60201c565b6200031057826000018290806001815401808255809150506001900390600052602060002001600090919091909150558260000180549050836001016000848152602001908152602001600020819055506001905062000315565b600090505b92915050565b600080836001016000848152602001908152602001600020541415905092915050565b8280546200034c906200063f565b90600052602060002090601f016020900481019282620003705760008555620003bc565b82601f106200038b57805160ff1916838001178555620003bc565b82800160010185558215620003bc579182015b82811115620003bb5782518255916020019190600101906200039e565b5b509050620003cb9190620003cf565b5090565b5b80821115620003ea576000816000905550600101620003d0565b5090565b6000604051905090565b600080fd5b600080fd5b600080fd5b600080fd5b6000601f19601f8301169050919050565b7f4e487b7100000000000000000000000000000000000000000000000000000000600052604160045260246000fd5b62000457826200040c565b810181811067ffffffffffffffff821117156200047957620004786200041d565b5b80604052505050565b60006200048e620003ee565b90506200049c82826200044c565b919050565b600067ffffffffffffffff821115620004bf57620004be6200041d565b5b620004ca826200040c565b9050602081019050919050565b60005b83811015620004f7578082015181840152602081019050620004da565b8381111562000507576000848401525b50505050565b6000620005246200051e84620004a1565b62000482565b90508281526020810184848401111562000543576200054262000407565b5b62000550848285620004d7565b509392505050565b600082601f83011262000570576200056f62000402565b5b8151620005828482602086016200050d565b91505092915050565b60008060408385031215620005a557620005a4620003f8565b5b600083015167ffffffffffffffff811115620005c657620005c5620003fd565b5b620005d48582860162000558565b925050602083015167ffffffffffffffff811115620005f857620005f7620003fd565b5b620006068582860162000558565b9150509250929050565b7f4e487b7100000000000000000000000000000000000000000000000000000000600052602260045260246000fd5b600060028204905060018216806200065857607f821691505b602082108114156200066f576200066e62000610565b5b50919050565b613fb980620006856000396000f3fe608060405234801561001057600080fd5b50600436106101585760003560e01c80639010d07c116100c3578063c87b56dd1161007c578063c87b56dd146103e7578063ca15c87314610417578063d204c45e14610447578063d539139314610463578063d547741f14610481578063e985e9c51461049d57610158565b80639010d07c1461031357806391d148541461034357806395d89b4114610373578063a217fddf14610391578063a22cb465146103af578063b88d4fde146103cb57610158565b80632f2ff15d116101155780632f2ff15d1461024357806336568abe1461025f57806342842e0e1461027b5780636352211e1461029757806364ba144e146102c757806370a08231146102e357610158565b806301ffc9a71461015d57806306fdde031461018d578063081812fc146101ab578063095ea7b3146101db57806323b872dd146101f7578063248a9ca314610213575b600080fd5b61017760048036038101906101729190612776565b6104cd565b60405161018491906127be565b60405180910390f35b6101956104df565b6040516101a29190612872565b60405180910390f35b6101c560048036038101906101c091906128ca565b610571565b6040516101d29190612938565b60405180910390f35b6101f560048036038101906101f0919061297f565b6105f6565b005b610211600480360381019061020c91906129bf565b61070e565b005b61022d60048036038101906102289190612a48565b61076e565b60405161023a9190612a84565b60405180910390f35b61025d60048036038101906102589190612a9f565b61078e565b005b61027960048036038101906102749190612a9f565b6107af565b005b610295600480360381019061029091906129bf565b610832565b005b6102b160048036038101906102ac91906128ca565b610852565b6040516102be9190612938565b60405180910390f35b6102e160048036038101906102dc9190612b9a565b610904565b005b6102fd60048036038101906102f89190612c1b565b610a5d565b60405161030a9190612c57565b60405180910390f35b61032d60048036038101906103289190612c72565b610b15565b60405161033a9190612938565b60405180910390f35b61035d60048036038101906103589190612a9f565b610b44565b60405161036a91906127be565b60405180910390f35b61037b610baf565b6040516103889190612872565b60405180910390f35b610399610c41565b6040516103a69190612a84565b60405180910390f35b6103c960048036038101906103c49190612cde565b610c48565b005b6103e560048036038101906103e09190612e4e565b610c5e565b005b61040160048036038101906103fc91906128ca565b610cc0565b60405161040e9190612872565b60405180910390f35b610431600480360381019061042c9190612a48565b610cd2565b60405161043e9190612c57565b60405180910390f35b610461600480360381019061045c9190612f72565b610cf6565b005b61046b610d52565b6040516104789190612a84565b60405180910390f35b61049b60048036038101906104969190612a9f565b610d76565b005b6104b760048036038101906104b29190612fce565b610d97565b6040516104c491906127be565b60405180910390f35b60006104d882610f3c565b9050919050565b6060600080546104ee9061303d565b80601f016020809104026020016040519081016040528092919081815260200182805461051a9061303d565b80156105675780601f1061053c57610100808354040283529160200191610567565b820191906000526020600020905b81548152906001019060200180831161054a57829003601f168201915b5050505050905090565b600061057c82610fb6565b6105bb576040517f08c379a00000000000000000000000000000000000000000000000000000000081526004016105b2906130e1565b60405180910390fd5b6004600083815260200190815260200160002060009054906101000a900473ffffffffffffffffffffffffffffffffffffffff169050919050565b600061060182610852565b90508073ffffffffffffffffffffffffffffffffffffffff168373ffffffffffffffffffffffffffffffffffffffff161415610672576040517f08c379a000000000000000000000000000000000000000000000000000000000815260040161066990613173565b60405180910390fd5b8073ffffffffffffffffffffffffffffffffffffffff16610691611022565b73ffffffffffffffffffffffffffffffffffffffff1614806106c057506106bf816106ba611022565b610d97565b5b6106ff576040517f08c379a00000000000000000000000000000000000000000000000000000000081526004016106f690613205565b60405180910390fd5b610709838361102a565b505050565b61071f610719611022565b826110e3565b61075e576040517f08c379a000000000000000000000000000000000000000000000000000000000815260040161075590613297565b60405180910390fd5b6107698383836111c1565b505050565b600060076000838152602001908152602001600020600101549050919050565b6107978261076e565b6107a081611428565b6107aa838361143c565b505050565b6107b7611022565b73ffffffffffffffffffffffffffffffffffffffff168173ffffffffffffffffffffffffffffffffffffffff1614610824576040517f08c379a000000000000000000000000000000000000000000000000000000000815260040161081b90613329565b60405180910390fd5b61082e8282611470565b5050565b61084d83838360405180602001604052806000815250610c5e565b505050565b6000806002600084815260200190815260200160002060009054906101000a900473ffffffffffffffffffffffffffffffffffffffff169050600073ffffffffffffffffffffffffffffffffffffffff168173ffffffffffffffffffffffffffffffffffffffff1614156108fb576040517f08c379a00000000000000000000000000000000000000000000000000000000081526004016108f2906133bb565b60405180910390fd5b80915050919050565b7f9f2df0fed2c77648de5860a4cc508cd0818c85b8b8a1ab4ceeef8d981c8956a661092e81611428565b828290508585905014610976576040517f08c379a000000000000000000000000000000000000000000000000000000000815260040161096d90613427565b60405180910390fd5b60005b85859050811015610a555761098e60096114a4565b6109c88686838181106109a4576109a3613447565b5b90506020020160208101906109b99190612c1b565b6109c360096114ba565b6114c8565b610a426109d560096114ba565b8585848181106109e8576109e7613447565b5b90506020028101906109fa9190613485565b8080601f016020809104026020016040519081016040528093929190818152602001838380828437600081840152601f19601f820116905080830192505050505050506114e6565b8080610a4d90613517565b915050610979565b505050505050565b60008073ffffffffffffffffffffffffffffffffffffffff168273ffffffffffffffffffffffffffffffffffffffff161415610ace576040517f08c379a0000000000000000000000000000000000000000000000000000000008152600401610ac5906135d2565b60405180910390fd5b600360008373ffffffffffffffffffffffffffffffffffffffff1673ffffffffffffffffffffffffffffffffffffffff168152602001908152602001600020549050919050565b6000610b3c826008600086815260200190815260200160002061155a90919063ffffffff16565b905092915050565b60006007600084815260200190815260200160002060000160008373ffffffffffffffffffffffffffffffffffffffff1673ffffffffffffffffffffffffffffffffffffffff16815260200190815260200160002060009054906101000a900460ff16905092915050565b606060018054610bbe9061303d565b80601f0160208091040260200160405190810160405280929190818152602001828054610bea9061303d565b8015610c375780601f10610c0c57610100808354040283529160200191610c37565b820191906000526020600020905b815481529060010190602001808311610c1a57829003601f168201915b5050505050905090565b6000801b81565b610c5a610c53611022565b8383611574565b5050565b610c6f610c69611022565b836110e3565b610cae576040517f08c379a0000000000000000000000000000000000000000000000000000000008152600401610ca590613297565b60405180910390fd5b610cba848484846116e1565b50505050565b6060610ccb8261173d565b9050919050565b6000610cef6008600084815260200190815260200160002061188f565b9050919050565b7f9f2df0fed2c77648de5860a4cc508cd0818c85b8b8a1ab4ceeef8d981c8956a6610d2081611428565b6000610d2c60096114ba565b9050610d3860096114a4565b610d4284826114c8565b610d4c81846114e6565b50505050565b7f9f2df0fed2c77648de5860a4cc508cd0818c85b8b8a1ab4ceeef8d981c8956a681565b610d7f8261076e565b610d8881611428565b610d928383611470565b505050565b6000600560008473ffffffffffffffffffffffffffffffffffffffff1673ffffffffffffffffffffffffffffffffffffffff16815260200190815260200160002060008373ffffffffffffffffffffffffffffffffffffffff1673ffffffffffffffffffffffffffffffffffffffff16815260200190815260200160002060009054906101000a900460ff16905092915050565b610e358282610b44565b610f085760016007600084815260200190815260200160002060000160008373ffffffffffffffffffffffffffffffffffffffff1673ffffffffffffffffffffffffffffffffffffffff16815260200190815260200160002060006101000a81548160ff021916908315150217905550610ead611022565b73ffffffffffffffffffffffffffffffffffffffff168173ffffffffffffffffffffffffffffffffffffffff16837f2f8788117e7eff1d82e926ec794901d17c78024a50270940304540a733656f0d60405160405180910390a45b5050565b6000610f34836000018373ffffffffffffffffffffffffffffffffffffffff1660001b6118a4565b905092915050565b60007f5a05180f000000000000000000000000000000000000000000000000000000007bffffffffffffffffffffffffffffffffffffffffffffffffffffffff1916827bffffffffffffffffffffffffffffffffffffffffffffffffffffffff19161480610faf5750610fae82611914565b5b9050919050565b60008073ffffffffffffffffffffffffffffffffffffffff166002600084815260200190815260200160002060009054906101000a900473ffffffffffffffffffffffffffffffffffffffff1673ffffffffffffffffffffffffffffffffffffffff1614159050919050565b600033905090565b816004600083815260200190815260200160002060006101000a81548173ffffffffffffffffffffffffffffffffffffffff021916908373ffffffffffffffffffffffffffffffffffffffff160217905550808273ffffffffffffffffffffffffffffffffffffffff1661109d83610852565b73ffffffffffffffffffffffffffffffffffffffff167f8c5be1e5ebec7d5bd14f71427d1e84f3dd0314c0f7b2291e5b200ac8c7c3b92560405160405180910390a45050565b60006110ee82610fb6565b61112d576040517f08c379a000000000000000000000000000000000000000000000000000000000815260040161112490613664565b60405180910390fd5b600061113883610852565b90508073ffffffffffffffffffffffffffffffffffffffff168473ffffffffffffffffffffffffffffffffffffffff16148061117a57506111798185610d97565b5b806111b857508373ffffffffffffffffffffffffffffffffffffffff166111a084610571565b73ffffffffffffffffffffffffffffffffffffffff16145b91505092915050565b8273ffffffffffffffffffffffffffffffffffffffff166111e182610852565b73ffffffffffffffffffffffffffffffffffffffff1614611237576040517f08c379a000000000000000000000000000000000000000000000000000000000815260040161122e906136f6565b60405180910390fd5b600073ffffffffffffffffffffffffffffffffffffffff168273ffffffffffffffffffffffffffffffffffffffff1614156112a7576040517f08c379a000000000000000000000000000000000000000000000000000000000815260040161129e90613788565b60405180910390fd5b6112b283838361198e565b6112bd60008261102a565b6001600360008573ffffffffffffffffffffffffffffffffffffffff1673ffffffffffffffffffffffffffffffffffffffff168152602001908152602001600020600082825461130d91906137a8565b925050819055506001600360008473ffffffffffffffffffffffffffffffffffffffff1673ffffffffffffffffffffffffffffffffffffffff168152602001908152602001600020600082825461136491906137dc565b92505081905550816002600083815260200190815260200160002060006101000a81548173ffffffffffffffffffffffffffffffffffffffff021916908373ffffffffffffffffffffffffffffffffffffffff160217905550808273ffffffffffffffffffffffffffffffffffffffff168473ffffffffffffffffffffffffffffffffffffffff167fddf252ad1be2c89b69c2b068fc378daa952ba7f163c4a11628f55a4df523b3ef60405160405180910390a4611423838383611993565b505050565b61143981611434611022565b611998565b50565b6114468282610e2b565b61146b8160086000858152602001908152602001600020610f0c90919063ffffffff16565b505050565b61147a8282611a35565b61149f8160086000858152602001908152602001600020611b1790919063ffffffff16565b505050565b6001816000016000828254019250508190555050565b600081600001549050919050565b6114e2828260405180602001604052806000815250611b47565b5050565b6114ef82610fb6565b61152e576040517f08c379a0000000000000000000000000000000000000000000000000000000008152600401611525906138a4565b60405180910390fd5b80600660008481526020019081526020016000209080519060200190611555929190612667565b505050565b60006115698360000183611ba2565b60001c905092915050565b8173ffffffffffffffffffffffffffffffffffffffff168373ffffffffffffffffffffffffffffffffffffffff1614156115e3576040517f08c379a00000000000000000000000000000000000000000000000000000000081526004016115da90613910565b60405180910390fd5b80600560008573ffffffffffffffffffffffffffffffffffffffff1673ffffffffffffffffffffffffffffffffffffffff16815260200190815260200160002060008473ffffffffffffffffffffffffffffffffffffffff1673ffffffffffffffffffffffffffffffffffffffff16815260200190815260200160002060006101000a81548160ff0219169083151502179055508173ffffffffffffffffffffffffffffffffffffffff168373ffffffffffffffffffffffffffffffffffffffff167f17307eab39ab6107e8899845ad3d59bd9653f200f220920489ca2b5937696c31836040516116d491906127be565b60405180910390a3505050565b6116ec8484846111c1565b6116f884848484611bcd565b611737576040517f08c379a000000000000000000000000000000000000000000000000000000000815260040161172e906139a2565b60405180910390fd5b50505050565b606061174882610fb6565b611787576040517f08c379a000000000000000000000000000000000000000000000000000000000815260040161177e90613a34565b60405180910390fd5b60006006600084815260200190815260200160002080546117a79061303d565b80601f01602080910402602001604051908101604052809291908181526020018280546117d39061303d565b80156118205780601f106117f557610100808354040283529160200191611820565b820191906000526020600020905b81548152906001019060200180831161180357829003601f168201915b505050505090506000611831611d55565b905060008151141561184757819250505061188a565b60008251111561187c578082604051602001611864929190613a90565b6040516020818303038152906040529250505061188a565b61188584611d92565b925050505b919050565b600061189d82600001611e39565b9050919050565b60006118b08383611e4a565b61190957826000018290806001815401808255809150506001900390600052602060002001600090919091909150558260000180549050836001016000848152602001908152602001600020819055506001905061190e565b600090505b92915050565b60007f7965db0b000000000000000000000000000000000000000000000000000000007bffffffffffffffffffffffffffffffffffffffffffffffffffffffff1916827bffffffffffffffffffffffffffffffffffffffffffffffffffffffff19161480611987575061198682611e6d565b5b9050919050565b505050565b505050565b6119a28282610b44565b611a31576119c78173ffffffffffffffffffffffffffffffffffffffff166014611f4f565b6119d58360001c6020611f4f565b6040516020016119e6929190613b4c565b6040516020818303038152906040526040517f08c379a0000000000000000000000000000000000000000000000000000000008152600401611a289190612872565b60405180910390fd5b5050565b611a3f8282610b44565b15611b135760006007600084815260200190815260200160002060000160008373ffffffffffffffffffffffffffffffffffffffff1673ffffffffffffffffffffffffffffffffffffffff16815260200190815260200160002060006101000a81548160ff021916908315150217905550611ab8611022565b73ffffffffffffffffffffffffffffffffffffffff168173ffffffffffffffffffffffffffffffffffffffff16837ff6391f5c32d9c69d2a47ea670b442974b53935d1edc7fd64eb21e047a839171b60405160405180910390a45b5050565b6000611b3f836000018373ffffffffffffffffffffffffffffffffffffffff1660001b61218b565b905092915050565b611b51838361229f565b611b5e6000848484611bcd565b611b9d576040517f08c379a0000000000000000000000000000000000000000000000000000000008152600401611b94906139a2565b60405180910390fd5b505050565b6000826000018281548110611bba57611bb9613447565b5b9060005260206000200154905092915050565b6000611bee8473ffffffffffffffffffffffffffffffffffffffff16612479565b15611d48578373ffffffffffffffffffffffffffffffffffffffff1663150b7a02611c17611022565b8786866040518563ffffffff1660e01b8152600401611c399493929190613bdb565b6020604051808303816000875af1925050508015611c7557506040513d601f19601f82011682018060405250810190611c729190613c3c565b60015b611cf8573d8060008114611ca5576040519150601f19603f3d011682016040523d82523d6000602084013e611caa565b606091505b50600081511415611cf0576040517f08c379a0000000000000000000000000000000000000000000000000000000008152600401611ce7906139a2565b60405180910390fd5b805181602001fd5b63150b7a0260e01b7bffffffffffffffffffffffffffffffffffffffffffffffffffffffff1916817bffffffffffffffffffffffffffffffffffffffffffffffffffffffff191614915050611d4d565b600190505b949350505050565b60606040518060400160405280600781526020017f697066733a2f2f00000000000000000000000000000000000000000000000000815250905090565b6060611d9d82610fb6565b611ddc576040517f08c379a0000000000000000000000000000000000000000000000000000000008152600401611dd390613cdb565b60405180910390fd5b6000611de6611d55565b90506000815111611e065760405180602001604052806000815250611e31565b80611e108461249c565b604051602001611e21929190613a90565b6040516020818303038152906040525b915050919050565b600081600001805490509050919050565b600080836001016000848152602001908152602001600020541415905092915050565b60007f80ac58cd000000000000000000000000000000000000000000000000000000007bffffffffffffffffffffffffffffffffffffffffffffffffffffffff1916827bffffffffffffffffffffffffffffffffffffffffffffffffffffffff19161480611f3857507f5b5e139f000000000000000000000000000000000000000000000000000000007bffffffffffffffffffffffffffffffffffffffffffffffffffffffff1916827bffffffffffffffffffffffffffffffffffffffffffffffffffffffff1916145b80611f485750611f47826125fd565b5b9050919050565b606060006002836002611f629190613cfb565b611f6c91906137dc565b67ffffffffffffffff811115611f8557611f84612d23565b5b6040519080825280601f01601f191660200182016040528015611fb75781602001600182028036833780820191505090505b5090507f300000000000000000000000000000000000000000000000000000000000000081600081518110611fef57611fee613447565b5b60200101907effffffffffffffffffffffffffffffffffffffffffffffffffffffffffffff1916908160001a9053507f78000000000000000000000000000000000000000000000000000000000000008160018151811061205357612052613447565b5b60200101907effffffffffffffffffffffffffffffffffffffffffffffffffffffffffffff1916908160001a905350600060018460026120939190613cfb565b61209d91906137dc565b90505b600181111561213d577f3031323334353637383961626364656600000000000000000000000000000000600f8616601081106120df576120de613447565b5b1a60f81b8282815181106120f6576120f5613447565b5b60200101907effffffffffffffffffffffffffffffffffffffffffffffffffffffffffffff1916908160001a905350600485901c94508061213690613d55565b90506120a0565b5060008414612181576040517f08c379a000000000000000000000000000000000000000000000000000000000815260040161217890613dcb565b60405180910390fd5b8091505092915050565b600080836001016000848152602001908152602001600020549050600081146122935760006001826121bd91906137a8565b90506000600186600001805490506121d591906137a8565b90508181146122445760008660000182815481106121f6576121f5613447565b5b906000526020600020015490508087600001848154811061221a57612219613447565b5b90600052602060002001819055508387600101600083815260200190815260200160002081905550505b8560000180548061225857612257613deb565b5b600190038181906000526020600020016000905590558560010160008681526020019081526020016000206000905560019350505050612299565b60009150505b92915050565b600073ffffffffffffffffffffffffffffffffffffffff168273ffffffffffffffffffffffffffffffffffffffff16141561230f576040517f08c379a000000000000000000000000000000000000000000000000000000000815260040161230690613e66565b60405180910390fd5b61231881610fb6565b15612358576040517f08c379a000000000000000000000000000000000000000000000000000000000815260040161234f90613ed2565b60405180910390fd5b6123646000838361198e565b6001600360008473ffffffffffffffffffffffffffffffffffffffff1673ffffffffffffffffffffffffffffffffffffffff16815260200190815260200160002060008282546123b491906137dc565b92505081905550816002600083815260200190815260200160002060006101000a81548173ffffffffffffffffffffffffffffffffffffffff021916908373ffffffffffffffffffffffffffffffffffffffff160217905550808273ffffffffffffffffffffffffffffffffffffffff16600073ffffffffffffffffffffffffffffffffffffffff167fddf252ad1be2c89b69c2b068fc378daa952ba7f163c4a11628f55a4df523b3ef60405160405180910390a461247560008383611993565b5050565b6000808273ffffffffffffffffffffffffffffffffffffffff163b119050919050565b606060008214156124e4576040518060400160405280600181526020017f300000000000000000000000000000000000000000000000000000000000000081525090506125f8565b600082905060005b600082146125165780806124ff90613517565b915050600a8261250f9190613f21565b91506124ec565b60008167ffffffffffffffff81111561253257612531612d23565b5b6040519080825280601f01601f1916602001820160405280156125645781602001600182028036833780820191505090505b5090505b600085146125f15760018261257d91906137a8565b9150600a8561258c9190613f52565b603061259891906137dc565b60f81b8183815181106125ae576125ad613447565b5b60200101907effffffffffffffffffffffffffffffffffffffffffffffffffffffffffffff1916908160001a905350600a856125ea9190613f21565b9450612568565b8093505050505b919050565b60007f01ffc9a7000000000000000000000000000000000000000000000000000000007bffffffffffffffffffffffffffffffffffffffffffffffffffffffff1916827bffffffffffffffffffffffffffffffffffffffffffffffffffffffff1916149050919050565b8280546126739061303d565b90600052602060002090601f01602090048101928261269557600085556126dc565b82601f106126ae57805160ff19168380011785556126dc565b828001600101855582156126dc579182015b828111156126db5782518255916020019190600101906126c0565b5b5090506126e991906126ed565b5090565b5b808211156127065760008160009055506001016126ee565b5090565b6000604051905090565b600080fd5b600080fd5b60007fffffffff0000000000000000000000000000000000000000000000000000000082169050919050565b6127538161271e565b811461275e57600080fd5b50565b6000813590506127708161274a565b92915050565b60006020828403121561278c5761278b612714565b5b600061279a84828501612761565b91505092915050565b60008115159050919050565b6127b8816127a3565b82525050565b60006020820190506127d360008301846127af565b92915050565b600081519050919050565b600082825260208201905092915050565b60005b838110156128135780820151818401526020810190506127f8565b83811115612822576000848401525b50505050565b6000601f19601f8301169050919050565b6000612844826127d9565b61284e81856127e4565b935061285e8185602086016127f5565b61286781612828565b840191505092915050565b6000602082019050818103600083015261288c8184612839565b905092915050565b6000819050919050565b6128a781612894565b81146128b257600080fd5b50565b6000813590506128c48161289e565b92915050565b6000602082840312156128e0576128df612714565b5b60006128ee848285016128b5565b91505092915050565b600073ffffffffffffffffffffffffffffffffffffffff82169050919050565b6000612922826128f7565b9050919050565b61293281612917565b82525050565b600060208201905061294d6000830184612929565b92915050565b61295c81612917565b811461296757600080fd5b50565b60008135905061297981612953565b92915050565b6000806040838503121561299657612995612714565b5b60006129a48582860161296a565b92505060206129b5858286016128b5565b9150509250929050565b6000806000606084860312156129d8576129d7612714565b5b60006129e68682870161296a565b93505060206129f78682870161296a565b9250506040612a08868287016128b5565b9150509250925092565b6000819050919050565b612a2581612a12565b8114612a3057600080fd5b50565b600081359050612a4281612a1c565b92915050565b600060208284031215612a5e57612a5d612714565b5b6000612a6c84828501612a33565b91505092915050565b612a7e81612a12565b82525050565b6000602082019050612a996000830184612a75565b92915050565b60008060408385031215612ab657612ab5612714565b5b6000612ac485828601612a33565b9250506020612ad58582860161296a565b9150509250929050565b600080fd5b600080fd5b600080fd5b60008083601f840112612b0457612b03612adf565b5b8235905067ffffffffffffffff811115612b2157612b20612ae4565b5b602083019150836020820283011115612b3d57612b3c612ae9565b5b9250929050565b60008083601f840112612b5a57612b59612adf565b5b8235905067ffffffffffffffff811115612b7757612b76612ae4565b5b602083019150836020820283011115612b9357612b92612ae9565b5b9250929050565b60008060008060408587031215612bb457612bb3612714565b5b600085013567ffffffffffffffff811115612bd257612bd1612719565b5b612bde87828801612aee565b9450945050602085013567ffffffffffffffff811115612c0157612c00612719565b5b612c0d87828801612b44565b925092505092959194509250565b600060208284031215612c3157612c30612714565b5b6000612c3f8482850161296a565b91505092915050565b612c5181612894565b82525050565b6000602082019050612c6c6000830184612c48565b92915050565b60008060408385031215612c8957612c88612714565b5b6000612c9785828601612a33565b9250506020612ca8858286016128b5565b9150509250929050565b612cbb816127a3565b8114612cc657600080fd5b50565b600081359050612cd881612cb2565b92915050565b60008060408385031215612cf557612cf4612714565b5b6000612d038582860161296a565b9250506020612d1485828601612cc9565b9150509250929050565b600080fd5b7f4e487b7100000000000000000000000000000000000000000000000000000000600052604160045260246000fd5b612d5b82612828565b810181811067ffffffffffffffff82111715612d7a57612d79612d23565b5b80604052505050565b6000612d8d61270a565b9050612d998282612d52565b919050565b600067ffffffffffffffff821115612db957612db8612d23565b5b612dc282612828565b9050602081019050919050565b82818337600083830152505050565b6000612df1612dec84612d9e565b612d83565b905082815260208101848484011115612e0d57612e0c612d1e565b5b612e18848285612dcf565b509392505050565b600082601f830112612e3557612e34612adf565b5b8135612e45848260208601612dde565b91505092915050565b60008060008060808587031215612e6857612e67612714565b5b6000612e768782880161296a565b9450506020612e878782880161296a565b9350506040612e98878288016128b5565b925050606085013567ffffffffffffffff811115612eb957612eb8612719565b5b612ec587828801612e20565b91505092959194509250565b600067ffffffffffffffff821115612eec57612eeb612d23565b5b612ef582612828565b9050602081019050919050565b6000612f15612f1084612ed1565b612d83565b905082815260208101848484011115612f3157612f30612d1e565b5b612f3c848285612dcf565b509392505050565b600082601f830112612f5957612f58612adf565b5b8135612f69848260208601612f02565b91505092915050565b60008060408385031215612f8957612f88612714565b5b6000612f978582860161296a565b925050602083013567ffffffffffffffff811115612fb857612fb7612719565b5b612fc485828601612f44565b9150509250929050565b60008060408385031215612fe557612fe4612714565b5b6000612ff38582860161296a565b92505060206130048582860161296a565b9150509250929050565b7f4e487b7100000000000000000000000000000000000000000000000000000000600052602260045260246000fd5b6000600282049050600182168061305557607f821691505b602082108114156130695761306861300e565b5b50919050565b7f4552433732313a20617070726f76656420717565727920666f72206e6f6e657860008201527f697374656e7420746f6b656e0000000000000000000000000000000000000000602082015250565b60006130cb602c836127e4565b91506130d68261306f565b604082019050919050565b600060208201905081810360008301526130fa816130be565b9050919050565b7f4552433732313a20617070726f76616c20746f2063757272656e74206f776e6560008201527f7200000000000000000000000000000000000000000000000000000000000000602082015250565b600061315d6021836127e4565b915061316882613101565b604082019050919050565b6000602082019050818103600083015261318c81613150565b9050919050565b7f4552433732313a20617070726f76652063616c6c6572206973206e6f74206f7760008201527f6e6572206e6f7220617070726f76656420666f7220616c6c0000000000000000602082015250565b60006131ef6038836127e4565b91506131fa82613193565b604082019050919050565b6000602082019050818103600083015261321e816131e2565b9050919050565b7f4552433732313a207472616e736665722063616c6c6572206973206e6f74206f60008201527f776e6572206e6f7220617070726f766564000000000000000000000000000000602082015250565b60006132816031836127e4565b915061328c82613225565b604082019050919050565b600060208201905081810360008301526132b081613274565b9050919050565b7f416363657373436f6e74726f6c3a2063616e206f6e6c792072656e6f756e636560008201527f20726f6c657320666f722073656c660000000000000000000000000000000000602082015250565b6000613313602f836127e4565b915061331e826132b7565b604082019050919050565b6000602082019050818103600083015261334281613306565b9050919050565b7f4552433732313a206f776e657220717565727920666f72206e6f6e657869737460008201527f656e7420746f6b656e0000000000000000000000000000000000000000000000602082015250565b60006133a56029836127e4565b91506133b082613349565b604082019050919050565b600060208201905081810360008301526133d481613398565b9050919050565b7f6d69736d6174636820696e206c656e6774680000000000000000000000000000600082015250565b60006134116012836127e4565b915061341c826133db565b602082019050919050565b6000602082019050818103600083015261344081613404565b9050919050565b7f4e487b7100000000000000000000000000000000000000000000000000000000600052603260045260246000fd5b600080fd5b600080fd5b600080fd5b600080833560016020038436030381126134a2576134a1613476565b5b80840192508235915067ffffffffffffffff8211156134c4576134c361347b565b5b6020830192506001820236038313156134e0576134df613480565b5b509250929050565b7f4e487b7100000000000000000000000000000000000000000000000000000000600052601160045260246000fd5b600061352282612894565b91507fffffffffffffffffffffffffffffffffffffffffffffffffffffffffffffffff821415613555576135546134e8565b5b600182019050919050565b7f4552433732313a2062616c616e636520717565727920666f7220746865207a6560008201527f726f206164647265737300000000000000000000000000000000000000000000602082015250565b60006135bc602a836127e4565b91506135c782613560565b604082019050919050565b600060208201905081810360008301526135eb816135af565b9050919050565b7f4552433732313a206f70657261746f7220717565727920666f72206e6f6e657860008201527f697374656e7420746f6b656e0000000000000000000000000000000000000000602082015250565b600061364e602c836127e4565b9150613659826135f2565b604082019050919050565b6000602082019050818103600083015261367d81613641565b9050919050565b7f4552433732313a207472616e736665722066726f6d20696e636f72726563742060008201527f6f776e6572000000000000000000000000000000000000000000000000000000602082015250565b60006136e06025836127e4565b91506136eb82613684565b604082019050919050565b6000602082019050818103600083015261370f816136d3565b9050919050565b7f4552433732313a207472616e7366657220746f20746865207a65726f2061646460008201527f7265737300000000000000000000000000000000000000000000000000000000602082015250565b60006137726024836127e4565b915061377d82613716565b604082019050919050565b600060208201905081810360008301526137a181613765565b9050919050565b60006137b382612894565b91506137be83612894565b9250828210156137d1576137d06134e8565b5b828203905092915050565b60006137e782612894565b91506137f283612894565b9250827fffffffffffffffffffffffffffffffffffffffffffffffffffffffffffffffff03821115613827576138266134e8565b5b828201905092915050565b7f45524337323155524953746f726167653a2055524920736574206f66206e6f6e60008201527f6578697374656e7420746f6b656e000000000000000000000000000000000000602082015250565b600061388e602e836127e4565b915061389982613832565b604082019050919050565b600060208201905081810360008301526138bd81613881565b9050919050565b7f4552433732313a20617070726f766520746f2063616c6c657200000000000000600082015250565b60006138fa6019836127e4565b9150613905826138c4565b602082019050919050565b60006020820190508181036000830152613929816138ed565b9050919050565b7f4552433732313a207472616e7366657220746f206e6f6e20455243373231526560008201527f63656976657220696d706c656d656e7465720000000000000000000000000000602082015250565b600061398c6032836127e4565b915061399782613930565b604082019050919050565b600060208201905081810360008301526139bb8161397f565b9050919050565b7f45524337323155524953746f726167653a2055524920717565727920666f722060008201527f6e6f6e6578697374656e7420746f6b656e000000000000000000000000000000602082015250565b6000613a1e6031836127e4565b9150613a29826139c2565b604082019050919050565b60006020820190508181036000830152613a4d81613a11565b9050919050565b600081905092915050565b6000613a6a826127d9565b613a748185613a54565b9350613a848185602086016127f5565b80840191505092915050565b6000613a9c8285613a5f565b9150613aa88284613a5f565b91508190509392505050565b7f416363657373436f6e74726f6c3a206163636f756e7420000000000000000000600082015250565b6000613aea601783613a54565b9150613af582613ab4565b601782019050919050565b7f206973206d697373696e6720726f6c6520000000000000000000000000000000600082015250565b6000613b36601183613a54565b9150613b4182613b00565b601182019050919050565b6000613b5782613add565b9150613b638285613a5f565b9150613b6e82613b29565b9150613b7a8284613a5f565b91508190509392505050565b600081519050919050565b600082825260208201905092915050565b6000613bad82613b86565b613bb78185613b91565b9350613bc78185602086016127f5565b613bd081612828565b840191505092915050565b6000608082019050613bf06000830187612929565b613bfd6020830186612929565b613c0a6040830185612c48565b8181036060830152613c1c8184613ba2565b905095945050505050565b600081519050613c368161274a565b92915050565b600060208284031215613c5257613c51612714565b5b6000613c6084828501613c27565b91505092915050565b7f4552433732314d657461646174613a2055524920717565727920666f72206e6f60008201527f6e6578697374656e7420746f6b656e0000000000000000000000000000000000602082015250565b6000613cc5602f836127e4565b9150613cd082613c69565b604082019050919050565b60006020820190508181036000830152613cf481613cb8565b9050919050565b6000613d0682612894565b9150613d1183612894565b9250817fffffffffffffffffffffffffffffffffffffffffffffffffffffffffffffffff0483118215151615613d4a57613d496134e8565b5b828202905092915050565b6000613d6082612894565b91506000821415613d7457613d736134e8565b5b600182039050919050565b7f537472696e67733a20686578206c656e67746820696e73756666696369656e74600082015250565b6000613db56020836127e4565b9150613dc082613d7f565b602082019050919050565b60006020820190508181036000830152613de481613da8565b9050919050565b7f4e487b7100000000000000000000000000000000000000000000000000000000600052603160045260246000fd5b7f4552433732313a206d696e7420746f20746865207a65726f2061646472657373600082015250565b6000613e506020836127e4565b9150613e5b82613e1a565b602082019050919050565b60006020820190508181036000830152613e7f81613e43565b9050919050565b7f4552433732313a20746f6b656e20616c7265616479206d696e74656400000000600082015250565b6000613ebc601c836127e4565b9150613ec782613e86565b602082019050919050565b60006020820190508181036000830152613eeb81613eaf565b9050919050565b7f4e487b7100000000000000000000000000000000000000000000000000000000600052601260045260246000fd5b6000613f2c82612894565b9150613f3783612894565b925082613f4757613f46613ef2565b5b828204905092915050565b6000613f5d82612894565b9150613f6883612894565b925082613f7857613f77613ef2565b5b82820690509291505056fea26469706673582212203d47de8b9972a9847c069fc5f0dd21dd8be50060f39cf5b251f753bf547a26ee64736f6c634300080a0033",
  "linkReferences": {},
  "deployedLinkReferences": {}
}