{
  "_format": "hh-sol-artifact-1",
  "contractName": "MinterNFT",
  "sourceName": "contracts/MinterNFT.sol",
  "abi": [
    {
      "inputs": [
        {
          "internalType": "string",
          "name": "_name",
          "type": "string"
        },
        {
          "internalType": "string",
          "name": "_symbol",
          "type": "string"
        }
      ],
      "stateMutability": "nonpayable",
      "type": "constructor"
    },
    {
      "anonymous": false,
      "inputs": [
        {
          "indexed": true,
          "internalType": "address",
          "name": "owner",
          "type": "address"
        },
        {
          "indexed": true,
          "internalType": "address",
          "name": "approved",
          "type": "address"
        },
        {
          "indexed": true,
          "internalType": "uint256",
          "name": "tokenId",
          "type": "uint256"
        }
      ],
      "name": "Approval",
      "type": "event"
    },
    {
      "anonymous": false,
      "inputs": [
        {
          "indexed": true,
          "internalType": "address",
          "name": "owner",
          "type": "address"
        },
        {
          "indexed": true,
          "internalType": "address",
          "name": "operator",
          "type": "address"
        },
        {
          "indexed": false,
          "internalType": "bool",
          "name": "approved",
          "type": "bool"
        }
      ],
      "name": "ApprovalForAll",
      "type": "event"
    },
    {
      "anonymous": false,
      "inputs": [
        {
          "indexed": true,
          "internalType": "bytes32",
          "name": "role",
          "type": "bytes32"
        },
        {
          "indexed": true,
          "internalType": "bytes32",
          "name": "previousAdminRole",
          "type": "bytes32"
        },
        {
          "indexed": true,
          "internalType": "bytes32",
          "name": "newAdminRole",
          "type": "bytes32"
        }
      ],
      "name": "RoleAdminChanged",
      "type": "event"
    },
    {
      "anonymous": false,
      "inputs": [
        {
          "indexed": true,
          "internalType": "bytes32",
          "name": "role",
          "type": "bytes32"
        },
        {
          "indexed": true,
          "internalType": "address",
          "name": "account",
          "type": "address"
        },
        {
          "indexed": true,
          "internalType": "address",
          "name": "sender",
          "type": "address"
        }
      ],
      "name": "RoleGranted",
      "type": "event"
    },
    {
      "anonymous": false,
      "inputs": [
        {
          "indexed": true,
          "internalType": "bytes32",
          "name": "role",
          "type": "bytes32"
        },
        {
          "indexed": true,
          "internalType": "address",
          "name": "account",
          "type": "address"
        },
        {
          "indexed": true,
          "internalType": "address",
          "name": "sender",
          "type": "address"
        }
      ],
      "name": "RoleRevoked",
      "type": "event"
    },
    {
      "anonymous": false,
      "inputs": [
        {
          "indexed": true,
          "internalType": "address",
          "name": "from",
          "type": "address"
        },
        {
          "indexed": true,
          "internalType": "address",
          "name": "to",
          "type": "address"
        },
        {
          "indexed": true,
          "internalType": "uint256",
          "name": "tokenId",
          "type": "uint256"
        }
      ],
      "name": "Transfer",
      "type": "event"
    },
    {
      "inputs": [],
      "name": "DEFAULT_ADMIN_ROLE",
      "outputs": [
        {
          "internalType": "bytes32",
          "name": "",
          "type": "bytes32"
        }
      ],
      "stateMutability": "view",
      "type": "function"
    },
    {
      "inputs": [],
      "name": "MINTER_ROLE",
      "outputs": [
        {
          "internalType": "bytes32",
          "name": "",
          "type": "bytes32"
        }
      ],
      "stateMutability": "view",
      "type": "function"
    },
    {
      "inputs": [
        {
          "internalType": "address",
          "name": "to",
          "type": "address"
        },
        {
          "internalType": "uint256",
          "name": "tokenId",
          "type": "uint256"
        }
      ],
      "name": "approve",
      "outputs": [],
      "stateMutability": "nonpayable",
      "type": "function"
    },
    {
      "inputs": [
        {
          "internalType": "address",
          "name": "owner",
          "type": "address"
        }
      ],
      "name": "balanceOf",
      "outputs": [
        {
          "internalType": "uint256",
          "name": "",
          "type": "uint256"
        }
      ],
      "stateMutability": "view",
      "type": "function"
    },
    {
      "inputs": [
        {
          "internalType": "address[]",
          "name": "tos",
          "type": "address[]"
        },
        {
          "internalType": "string[]",
          "name": "uris",
          "type": "string[]"
        }
      ],
      "name": "batchMint",
      "outputs": [],
      "stateMutability": "nonpayable",
      "type": "function"
    },
    {
      "inputs": [
        {
          "internalType": "uint256",
          "name": "tokenId",
          "type": "uint256"
        }
      ],
      "name": "getApproved",
      "outputs": [
        {
          "internalType": "address",
          "name": "",
          "type": "address"
        }
      ],
      "stateMutability": "view",
      "type": "function"
    },
    {
      "inputs": [
        {
          "internalType": "bytes32",
          "name": "role",
          "type": "bytes32"
        }
      ],
      "name": "getRoleAdmin",
      "outputs": [
        {
          "internalType": "bytes32",
          "name": "",
          "type": "bytes32"
        }
      ],
      "stateMutability": "view",
      "type": "function"
    },
    {
      "inputs": [
        {
          "internalType": "bytes32",
          "name": "role",
          "type": "bytes32"
        },
        {
          "internalType": "uint256",
          "name": "index",
          "type": "uint256"
        }
      ],
      "name": "getRoleMember",
      "outputs": [
        {
          "internalType": "address",
          "name": "",
          "type": "address"
        }
      ],
      "stateMutability": "view",
      "type": "function"
    },
    {
      "inputs": [
        {
          "internalType": "bytes32",
          "name": "role",
          "type": "bytes32"
        }
      ],
      "name": "getRoleMemberCount",
      "outputs": [
        {
          "internalType": "uint256",
          "name": "",
          "type": "uint256"
        }
      ],
      "stateMutability": "view",
      "type": "function"
    },
    {
      "inputs": [
        {
          "internalType": "bytes32",
          "name": "role",
          "type": "bytes32"
        },
        {
          "internalType": "address",
          "name": "account",
          "type": "address"
        }
      ],
      "name": "grantRole",
      "outputs": [],
      "stateMutability": "nonpayable",
      "type": "function"
    },
    {
      "inputs": [
        {
          "internalType": "bytes32",
          "name": "role",
          "type": "bytes32"
        },
        {
          "internalType": "address",
          "name": "account",
          "type": "address"
        }
      ],
      "name": "hasRole",
      "outputs": [
        {
          "internalType": "bool",
          "name": "",
          "type": "bool"
        }
      ],
      "stateMutability": "view",
      "type": "function"
    },
    {
      "inputs": [
        {
          "internalType": "address",
          "name": "owner",
          "type": "address"
        },
        {
          "internalType": "address",
          "name": "operator",
          "type": "address"
        }
      ],
      "name": "isApprovedForAll",
      "outputs": [
        {
          "internalType": "bool",
          "name": "",
          "type": "bool"
        }
      ],
      "stateMutability": "view",
      "type": "function"
    },
    {
      "inputs": [],
      "name": "name",
      "outputs": [
        {
          "internalType": "string",
          "name": "",
          "type": "string"
        }
      ],
      "stateMutability": "view",
      "type": "function"
    },
    {
      "inputs": [
        {
          "internalType": "uint256",
          "name": "tokenId",
          "type": "uint256"
        }
      ],
      "name": "ownerOf",
      "outputs": [
        {
          "internalType": "address",
          "name": "",
          "type": "address"
        }
      ],
      "stateMutability": "view",
      "type": "function"
    },
    {
      "inputs": [
        {
          "internalType": "bytes32",
          "name": "role",
          "type": "bytes32"
        },
        {
          "internalType": "address",
          "name": "account",
          "type": "address"
        }
      ],
      "name": "renounceRole",
      "outputs": [],
      "stateMutability": "nonpayable",
      "type": "function"
    },
    {
      "inputs": [
        {
          "internalType": "bytes32",
          "name": "role",
          "type": "bytes32"
        },
        {
          "internalType": "address",
          "name": "account",
          "type": "address"
        }
      ],
      "name": "revokeRole",
      "outputs": [],
      "stateMutability": "nonpayable",
      "type": "function"
    },
    {
      "inputs": [
        {
          "internalType": "address",
          "name": "to",
          "type": "address"
        },
        {
          "internalType": "string",
          "name": "uri",
          "type": "string"
        }
      ],
      "name": "safeMint",
      "outputs": [],
      "stateMutability": "nonpayable",
      "type": "function"
    },
    {
      "inputs": [
        {
          "internalType": "address",
          "name": "from",
          "type": "address"
        },
        {
          "internalType": "address",
          "name": "to",
          "type": "address"
        },
        {
          "internalType": "uint256",
          "name": "tokenId",
          "type": "uint256"
        }
      ],
      "name": "safeTransferFrom",
      "outputs": [],
      "stateMutability": "nonpayable",
      "type": "function"
    },
    {
      "inputs": [
        {
          "internalType": "address",
          "name": "from",
          "type": "address"
        },
        {
          "internalType": "address",
          "name": "to",
          "type": "address"
        },
        {
          "internalType": "uint256",
          "name": "tokenId",
          "type": "uint256"
        },
        {
          "internalType": "bytes",
          "name": "_data",
          "type": "bytes"
        }
      ],
      "name": "safeTransferFrom",
      "outputs": [],
      "stateMutability": "nonpayable",
      "type": "function"
    },
    {
      "inputs": [
        {
          "internalType": "address",
          "name": "operator",
          "type": "address"
        },
        {
          "internalType": "bool",
          "name": "approved",
          "type": "bool"
        }
      ],
      "name": "setApprovalForAll",
      "outputs": [],
      "stateMutability": "nonpayable",
      "type": "function"
    },
    {
      "inputs": [
        {
          "internalType": "bytes4",
          "name": "interfaceId",
          "type": "bytes4"
        }
      ],
      "name": "supportsInterface",
      "outputs": [
        {
          "internalType": "bool",
          "name": "",
          "type": "bool"
        }
      ],
      "stateMutability": "view",
      "type": "function"
    },
    {
      "inputs": [],
      "name": "symbol",
      "outputs": [
        {
          "internalType": "string",
          "name": "",
          "type": "string"
        }
      ],
      "stateMutability": "view",
      "type": "function"
    },
    {
      "inputs": [
        {
          "internalType": "uint256",
          "name": "tokenId",
          "type": "uint256"
        }
      ],
      "name": "tokenURI",
      "outputs": [
        {
          "internalType": "string",
          "name": "",
          "type": "string"
        }
      ],
      "stateMutability": "view",
      "type": "function"
    },
    {
      "inputs": [
        {
          "internalType": "address",
          "name": "from",
          "type": "address"
        },
        {
          "internalType": "address",
          "name": "to",
          "type": "address"
        },
        {
          "internalType": "uint256",
          "name": "tokenId",
          "type": "uint256"
        }
      ],
      "name": "transferFrom",
      "outputs": [],
      "stateMutability": "nonpayable",
      "type": "function"
    }
  ],
  "bytecode": "0x60806040523480156200001157600080fd5b50604051620046183803806200461883398181016040528101906200003791906200058b565b81818160009080519060200190620000519291906200033e565b5080600190805190602001906200006a9291906200033e565b505050620000826000801b33620000bc60201b60201c565b620000b47f9f2df0fed2c77648de5860a4cc508cd0818c85b8b8a1ab4ceeef8d981c8956a633620000bc60201b60201c565b505062000675565b620000d382826200010460201b62000e051760201c565b620000ff8160086000858152602001908152602001600020620001f660201b62000ee61790919060201c565b505050565b6200011682826200022e60201b60201c565b620001f25760016007600084815260200190815260200160002060000160008373ffffffffffffffffffffffffffffffffffffffff1673ffffffffffffffffffffffffffffffffffffffff16815260200190815260200160002060006101000a81548160ff021916908315150217905550620001976200029960201b60201c565b73ffffffffffffffffffffffffffffffffffffffff168173ffffffffffffffffffffffffffffffffffffffff16837f2f8788117e7eff1d82e926ec794901d17c78024a50270940304540a733656f0d60405160405180910390a45b5050565b600062000226836000018373ffffffffffffffffffffffffffffffffffffffff1660001b620002a160201b60201c565b905092915050565b60006007600084815260200190815260200160002060000160008373ffffffffffffffffffffffffffffffffffffffff1673ffffffffffffffffffffffffffffffffffffffff16815260200190815260200160002060009054906101000a900460ff16905092915050565b600033905090565b6000620002b583836200031b60201b60201c565b6200031057826000018290806001815401808255809150506001900390600052602060002001600090919091909150558260000180549050836001016000848152602001908152602001600020819055506001905062000315565b600090505b92915050565b600080836001016000848152602001908152602001600020541415905092915050565b8280546200034c906200063f565b90600052602060002090601f016020900481019282620003705760008555620003bc565b82601f106200038b57805160ff1916838001178555620003bc565b82800160010185558215620003bc579182015b82811115620003bb5782518255916020019190600101906200039e565b5b509050620003cb9190620003cf565b5090565b5b80821115620003ea576000816000905550600101620003d0565b5090565b6000604051905090565b600080fd5b600080fd5b600080fd5b600080fd5b6000601f19601f8301169050919050565b7f4e487b7100000000000000000000000000000000000000000000000000000000600052604160045260246000fd5b62000457826200040c565b810181811067ffffffffffffffff821117156200047957620004786200041d565b5b80604052505050565b60006200048e620003ee565b90506200049c82826200044c565b919050565b600067ffffffffffffffff821115620004bf57620004be6200041d565b5b620004ca826200040c565b9050602081019050919050565b60005b83811015620004f7578082015181840152602081019050620004da565b8381111562000507576000848401525b50505050565b6000620005246200051e84620004a1565b62000482565b90508281526020810184848401111562000543576200054262000407565b5b62000550848285620004d7565b509392505050565b600082601f83011262000570576200056f62000402565b5b8151620005828482602086016200050d565b91505092915050565b60008060408385031215620005a557620005a4620003f8565b5b600083015167ffffffffffffffff811115620005c657620005c5620003fd565b5b620005d48582860162000558565b925050602083015167ffffffffffffffff811115620005f857620005f7620003fd565b5b620006068582860162000558565b9150509250929050565b7f4e487b7100000000000000000000000000000000000000000000000000000000600052602260045260246000fd5b600060028204905060018216806200065857607f821691505b602082108114156200066f576200066e62000610565b5b50919050565b613f9380620006856000396000f3fe608060405234801561001057600080fd5b50600436106101585760003560e01c80639010d07c116100c3578063c87b56dd1161007c578063c87b56dd146103e7578063ca15c87314610417578063d204c45e14610447578063d539139314610463578063d547741f14610481578063e985e9c51461049d57610158565b80639010d07c1461031357806391d148541461034357806395d89b4114610373578063a217fddf14610391578063a22cb465146103af578063b88d4fde146103cb57610158565b80632f2ff15d116101155780632f2ff15d1461024357806336568abe1461025f57806342842e0e1461027b5780636352211e1461029757806364ba144e146102c757806370a08231146102e357610158565b806301ffc9a71461015d57806306fdde031461018d578063081812fc146101ab578063095ea7b3146101db57806323b872dd146101f7578063248a9ca314610213575b600080fd5b61017760048036038101906101729190612750565b6104cd565b6040516101849190612798565b60405180910390f35b6101956104df565b6040516101a2919061284c565b60405180910390f35b6101c560048036038101906101c091906128a4565b610571565b6040516101d29190612912565b60405180910390f35b6101f560048036038101906101f09190612959565b6105f6565b005b610211600480360381019061020c9190612999565b61070e565b005b61022d60048036038101906102289190612a22565b61076e565b60405161023a9190612a5e565b60405180910390f35b61025d60048036038101906102589190612a79565b61078e565b005b61027960048036038101906102749190612a79565b6107af565b005b61029560048036038101906102909190612999565b610832565b005b6102b160048036038101906102ac91906128a4565b610852565b6040516102be9190612912565b60405180910390f35b6102e160048036038101906102dc9190612b74565b610904565b005b6102fd60048036038101906102f89190612bf5565b610a37565b60405161030a9190612c31565b60405180910390f35b61032d60048036038101906103289190612c4c565b610aef565b60405161033a9190612912565b60405180910390f35b61035d60048036038101906103589190612a79565b610b1e565b60405161036a9190612798565b60405180910390f35b61037b610b89565b604051610388919061284c565b60405180910390f35b610399610c1b565b6040516103a69190612a5e565b60405180910390f35b6103c960048036038101906103c49190612cb8565b610c22565b005b6103e560048036038101906103e09190612e28565b610c38565b005b61040160048036038101906103fc91906128a4565b610c9a565b60405161040e919061284c565b60405180910390f35b610431600480360381019061042c9190612a22565b610cac565b60405161043e9190612c31565b60405180910390f35b610461600480360381019061045c9190612f4c565b610cd0565b005b61046b610d2c565b6040516104789190612a5e565b60405180910390f35b61049b60048036038101906104969190612a79565b610d50565b005b6104b760048036038101906104b29190612fa8565b610d71565b6040516104c49190612798565b60405180910390f35b60006104d882610f16565b9050919050565b6060600080546104ee90613017565b80601f016020809104026020016040519081016040528092919081815260200182805461051a90613017565b80156105675780601f1061053c57610100808354040283529160200191610567565b820191906000526020600020905b81548152906001019060200180831161054a57829003601f168201915b5050505050905090565b600061057c82610f90565b6105bb576040517f08c379a00000000000000000000000000000000000000000000000000000000081526004016105b2906130bb565b60405180910390fd5b6004600083815260200190815260200160002060009054906101000a900473ffffffffffffffffffffffffffffffffffffffff169050919050565b600061060182610852565b90508073ffffffffffffffffffffffffffffffffffffffff168373ffffffffffffffffffffffffffffffffffffffff161415610672576040517f08c379a00000000000000000000000000000000000000000000000000000000081526004016106699061314d565b60405180910390fd5b8073ffffffffffffffffffffffffffffffffffffffff16610691610ffc565b73ffffffffffffffffffffffffffffffffffffffff1614806106c057506106bf816106ba610ffc565b610d71565b5b6106ff576040517f08c379a00000000000000000000000000000000000000000000000000000000081526004016106f6906131df565b60405180910390fd5b6107098383611004565b505050565b61071f610719610ffc565b826110bd565b61075e576040517f08c379a000000000000000000000000000000000000000000000000000000000815260040161075590613271565b60405180910390fd5b61076983838361119b565b505050565b600060076000838152602001908152602001600020600101549050919050565b6107978261076e565b6107a081611402565b6107aa8383611416565b505050565b6107b7610ffc565b73ffffffffffffffffffffffffffffffffffffffff168173ffffffffffffffffffffffffffffffffffffffff1614610824576040517f08c379a000000000000000000000000000000000000000000000000000000000815260040161081b90613303565b60405180910390fd5b61082e828261144a565b5050565b61084d83838360405180602001604052806000815250610c38565b505050565b6000806002600084815260200190815260200160002060009054906101000a900473ffffffffffffffffffffffffffffffffffffffff169050600073ffffffffffffffffffffffffffffffffffffffff168173ffffffffffffffffffffffffffffffffffffffff1614156108fb576040517f08c379a00000000000000000000000000000000000000000000000000000000081526004016108f290613395565b60405180910390fd5b80915050919050565b7f9f2df0fed2c77648de5860a4cc508cd0818c85b8b8a1ab4ceeef8d981c8956a661092e81611402565b828290508585905014610976576040517f08c379a000000000000000000000000000000000000000000000000000000000815260040161096d90613401565b60405180910390fd5b60005b85859050811015610a2f57610a1c86868381811061099a57610999613421565b5b90506020020160208101906109af9190612bf5565b8585848181106109c2576109c1613421565b5b90506020028101906109d4919061345f565b8080601f016020809104026020016040519081016040528093929190818152602001838380828437600081840152601f19601f82011690508083019250505050505050610cd0565b8080610a27906134f1565b915050610979565b505050505050565b60008073ffffffffffffffffffffffffffffffffffffffff168273ffffffffffffffffffffffffffffffffffffffff161415610aa8576040517f08c379a0000000000000000000000000000000000000000000000000000000008152600401610a9f906135ac565b60405180910390fd5b600360008373ffffffffffffffffffffffffffffffffffffffff1673ffffffffffffffffffffffffffffffffffffffff168152602001908152602001600020549050919050565b6000610b16826008600086815260200190815260200160002061147e90919063ffffffff16565b905092915050565b60006007600084815260200190815260200160002060000160008373ffffffffffffffffffffffffffffffffffffffff1673ffffffffffffffffffffffffffffffffffffffff16815260200190815260200160002060009054906101000a900460ff16905092915050565b606060018054610b9890613017565b80601f0160208091040260200160405190810160405280929190818152602001828054610bc490613017565b8015610c115780601f10610be657610100808354040283529160200191610c11565b820191906000526020600020905b815481529060010190602001808311610bf457829003601f168201915b5050505050905090565b6000801b81565b610c34610c2d610ffc565b8383611498565b5050565b610c49610c43610ffc565b836110bd565b610c88576040517f08c379a0000000000000000000000000000000000000000000000000000000008152600401610c7f90613271565b60405180910390fd5b610c9484848484611605565b50505050565b6060610ca582611661565b9050919050565b6000610cc9600860008481526020019081526020016000206117b3565b9050919050565b7f9f2df0fed2c77648de5860a4cc508cd0818c85b8b8a1ab4ceeef8d981c8956a6610cfa81611402565b6000610d0660096117c8565b9050610d1260096117d6565b610d1c84826117ec565b610d26818461180a565b50505050565b7f9f2df0fed2c77648de5860a4cc508cd0818c85b8b8a1ab4ceeef8d981c8956a681565b610d598261076e565b610d6281611402565b610d6c838361144a565b505050565b6000600560008473ffffffffffffffffffffffffffffffffffffffff1673ffffffffffffffffffffffffffffffffffffffff16815260200190815260200160002060008373ffffffffffffffffffffffffffffffffffffffff1673ffffffffffffffffffffffffffffffffffffffff16815260200190815260200160002060009054906101000a900460ff16905092915050565b610e0f8282610b1e565b610ee25760016007600084815260200190815260200160002060000160008373ffffffffffffffffffffffffffffffffffffffff1673ffffffffffffffffffffffffffffffffffffffff16815260200190815260200160002060006101000a81548160ff021916908315150217905550610e87610ffc565b73ffffffffffffffffffffffffffffffffffffffff168173ffffffffffffffffffffffffffffffffffffffff16837f2f8788117e7eff1d82e926ec794901d17c78024a50270940304540a733656f0d60405160405180910390a45b5050565b6000610f0e836000018373ffffffffffffffffffffffffffffffffffffffff1660001b61187e565b905092915050565b60007f5a05180f000000000000000000000000000000000000000000000000000000007bffffffffffffffffffffffffffffffffffffffffffffffffffffffff1916827bffffffffffffffffffffffffffffffffffffffffffffffffffffffff19161480610f895750610f88826118ee565b5b9050919050565b60008073ffffffffffffffffffffffffffffffffffffffff166002600084815260200190815260200160002060009054906101000a900473ffffffffffffffffffffffffffffffffffffffff1673ffffffffffffffffffffffffffffffffffffffff1614159050919050565b600033905090565b816004600083815260200190815260200160002060006101000a81548173ffffffffffffffffffffffffffffffffffffffff021916908373ffffffffffffffffffffffffffffffffffffffff160217905550808273ffffffffffffffffffffffffffffffffffffffff1661107783610852565b73ffffffffffffffffffffffffffffffffffffffff167f8c5be1e5ebec7d5bd14f71427d1e84f3dd0314c0f7b2291e5b200ac8c7c3b92560405160405180910390a45050565b60006110c882610f90565b611107576040517f08c379a00000000000000000000000000000000000000000000000000000000081526004016110fe9061363e565b60405180910390fd5b600061111283610852565b90508073ffffffffffffffffffffffffffffffffffffffff168473ffffffffffffffffffffffffffffffffffffffff16148061115457506111538185610d71565b5b8061119257508373ffffffffffffffffffffffffffffffffffffffff1661117a84610571565b73ffffffffffffffffffffffffffffffffffffffff16145b91505092915050565b8273ffffffffffffffffffffffffffffffffffffffff166111bb82610852565b73ffffffffffffffffffffffffffffffffffffffff1614611211576040517f08c379a0000000000000000000000000000000000000000000000000000000008152600401611208906136d0565b60405180910390fd5b600073ffffffffffffffffffffffffffffffffffffffff168273ffffffffffffffffffffffffffffffffffffffff161415611281576040517f08c379a000000000000000000000000000000000000000000000000000000000815260040161127890613762565b60405180910390fd5b61128c838383611968565b611297600082611004565b6001600360008573ffffffffffffffffffffffffffffffffffffffff1673ffffffffffffffffffffffffffffffffffffffff16815260200190815260200160002060008282546112e79190613782565b925050819055506001600360008473ffffffffffffffffffffffffffffffffffffffff1673ffffffffffffffffffffffffffffffffffffffff168152602001908152602001600020600082825461133e91906137b6565b92505081905550816002600083815260200190815260200160002060006101000a81548173ffffffffffffffffffffffffffffffffffffffff021916908373ffffffffffffffffffffffffffffffffffffffff160217905550808273ffffffffffffffffffffffffffffffffffffffff168473ffffffffffffffffffffffffffffffffffffffff167fddf252ad1be2c89b69c2b068fc378daa952ba7f163c4a11628f55a4df523b3ef60405160405180910390a46113fd83838361196d565b505050565b6114138161140e610ffc565b611972565b50565b6114208282610e05565b6114458160086000858152602001908152602001600020610ee690919063ffffffff16565b505050565b6114548282611a0f565b6114798160086000858152602001908152602001600020611af190919063ffffffff16565b505050565b600061148d8360000183611b21565b60001c905092915050565b8173ffffffffffffffffffffffffffffffffffffffff168373ffffffffffffffffffffffffffffffffffffffff161415611507576040517f08c379a00000000000000000000000000000000000000000000000000000000081526004016114fe90613858565b60405180910390fd5b80600560008573ffffffffffffffffffffffffffffffffffffffff1673ffffffffffffffffffffffffffffffffffffffff16815260200190815260200160002060008473ffffffffffffffffffffffffffffffffffffffff1673ffffffffffffffffffffffffffffffffffffffff16815260200190815260200160002060006101000a81548160ff0219169083151502179055508173ffffffffffffffffffffffffffffffffffffffff168373ffffffffffffffffffffffffffffffffffffffff167f17307eab39ab6107e8899845ad3d59bd9653f200f220920489ca2b5937696c31836040516115f89190612798565b60405180910390a3505050565b61161084848461119b565b61161c84848484611b4c565b61165b576040517f08c379a0000000000000000000000000000000000000000000000000000000008152600401611652906138ea565b60405180910390fd5b50505050565b606061166c82610f90565b6116ab576040517f08c379a00000000000000000000000000000000000000000000000000000000081526004016116a29061397c565b60405180910390fd5b60006006600084815260200190815260200160002080546116cb90613017565b80601f01602080910402602001604051908101604052809291908181526020018280546116f790613017565b80156117445780601f1061171957610100808354040283529160200191611744565b820191906000526020600020905b81548152906001019060200180831161172757829003601f168201915b505050505090506000611755611cd4565b905060008151141561176b5781925050506117ae565b6000825111156117a05780826040516020016117889291906139d8565b604051602081830303815290604052925050506117ae565b6117a984611d11565b925050505b919050565b60006117c182600001611db8565b9050919050565b600081600001549050919050565b6001816000016000828254019250508190555050565b611806828260405180602001604052806000815250611dc9565b5050565b61181382610f90565b611852576040517f08c379a000000000000000000000000000000000000000000000000000000000815260040161184990613a6e565b60405180910390fd5b80600660008481526020019081526020016000209080519060200190611879929190612641565b505050565b600061188a8383611e24565b6118e35782600001829080600181540180825580915050600190039060005260206000200160009091909190915055826000018054905083600101600084815260200190815260200160002081905550600190506118e8565b600090505b92915050565b60007f7965db0b000000000000000000000000000000000000000000000000000000007bffffffffffffffffffffffffffffffffffffffffffffffffffffffff1916827bffffffffffffffffffffffffffffffffffffffffffffffffffffffff19161480611961575061196082611e47565b5b9050919050565b505050565b505050565b61197c8282610b1e565b611a0b576119a18173ffffffffffffffffffffffffffffffffffffffff166014611f29565b6119af8360001c6020611f29565b6040516020016119c0929190613b26565b6040516020818303038152906040526040517f08c379a0000000000000000000000000000000000000000000000000000000008152600401611a02919061284c565b60405180910390fd5b5050565b611a198282610b1e565b15611aed5760006007600084815260200190815260200160002060000160008373ffffffffffffffffffffffffffffffffffffffff1673ffffffffffffffffffffffffffffffffffffffff16815260200190815260200160002060006101000a81548160ff021916908315150217905550611a92610ffc565b73ffffffffffffffffffffffffffffffffffffffff168173ffffffffffffffffffffffffffffffffffffffff16837ff6391f5c32d9c69d2a47ea670b442974b53935d1edc7fd64eb21e047a839171b60405160405180910390a45b5050565b6000611b19836000018373ffffffffffffffffffffffffffffffffffffffff1660001b612165565b905092915050565b6000826000018281548110611b3957611b38613421565b5b9060005260206000200154905092915050565b6000611b6d8473ffffffffffffffffffffffffffffffffffffffff16612279565b15611cc7578373ffffffffffffffffffffffffffffffffffffffff1663150b7a02611b96610ffc565b8786866040518563ffffffff1660e01b8152600401611bb89493929190613bb5565b6020604051808303816000875af1925050508015611bf457506040513d601f19601f82011682018060405250810190611bf19190613c16565b60015b611c77573d8060008114611c24576040519150601f19603f3d011682016040523d82523d6000602084013e611c29565b606091505b50600081511415611c6f576040517f08c379a0000000000000000000000000000000000000000000000000000000008152600401611c66906138ea565b60405180910390fd5b805181602001fd5b63150b7a0260e01b7bffffffffffffffffffffffffffffffffffffffffffffffffffffffff1916817bffffffffffffffffffffffffffffffffffffffffffffffffffffffff191614915050611ccc565b600190505b949350505050565b60606040518060400160405280600781526020017f697066733a2f2f00000000000000000000000000000000000000000000000000815250905090565b6060611d1c82610f90565b611d5b576040517f08c379a0000000000000000000000000000000000000000000000000000000008152600401611d5290613cb5565b60405180910390fd5b6000611d65611cd4565b90506000815111611d855760405180602001604052806000815250611db0565b80611d8f8461229c565b604051602001611da09291906139d8565b6040516020818303038152906040525b915050919050565b600081600001805490509050919050565b611dd383836123fd565b611de06000848484611b4c565b611e1f576040517f08c379a0000000000000000000000000000000000000000000000000000000008152600401611e16906138ea565b60405180910390fd5b505050565b600080836001016000848152602001908152602001600020541415905092915050565b60007f80ac58cd000000000000000000000000000000000000000000000000000000007bffffffffffffffffffffffffffffffffffffffffffffffffffffffff1916827bffffffffffffffffffffffffffffffffffffffffffffffffffffffff19161480611f1257507f5b5e139f000000000000000000000000000000000000000000000000000000007bffffffffffffffffffffffffffffffffffffffffffffffffffffffff1916827bffffffffffffffffffffffffffffffffffffffffffffffffffffffff1916145b80611f225750611f21826125d7565b5b9050919050565b606060006002836002611f3c9190613cd5565b611f4691906137b6565b67ffffffffffffffff811115611f5f57611f5e612cfd565b5b6040519080825280601f01601f191660200182016040528015611f915781602001600182028036833780820191505090505b5090507f300000000000000000000000000000000000000000000000000000000000000081600081518110611fc957611fc8613421565b5b60200101907effffffffffffffffffffffffffffffffffffffffffffffffffffffffffffff1916908160001a9053507f78000000000000000000000000000000000000000000000000000000000000008160018151811061202d5761202c613421565b5b60200101907effffffffffffffffffffffffffffffffffffffffffffffffffffffffffffff1916908160001a9053506000600184600261206d9190613cd5565b61207791906137b6565b90505b6001811115612117577f3031323334353637383961626364656600000000000000000000000000000000600f8616601081106120b9576120b8613421565b5b1a60f81b8282815181106120d0576120cf613421565b5b60200101907effffffffffffffffffffffffffffffffffffffffffffffffffffffffffffff1916908160001a905350600485901c94508061211090613d2f565b905061207a565b506000841461215b576040517f08c379a000000000000000000000000000000000000000000000000000000000815260040161215290613da5565b60405180910390fd5b8091505092915050565b6000808360010160008481526020019081526020016000205490506000811461226d5760006001826121979190613782565b90506000600186600001805490506121af9190613782565b905081811461221e5760008660000182815481106121d0576121cf613421565b5b90600052602060002001549050808760000184815481106121f4576121f3613421565b5b90600052602060002001819055508387600101600083815260200190815260200160002081905550505b8560000180548061223257612231613dc5565b5b600190038181906000526020600020016000905590558560010160008681526020019081526020016000206000905560019350505050612273565b60009150505b92915050565b6000808273ffffffffffffffffffffffffffffffffffffffff163b119050919050565b606060008214156122e4576040518060400160405280600181526020017f300000000000000000000000000000000000000000000000000000000000000081525090506123f8565b600082905060005b600082146123165780806122ff906134f1565b915050600a8261230f9190613e23565b91506122ec565b60008167ffffffffffffffff81111561233257612331612cfd565b5b6040519080825280601f01601f1916602001820160405280156123645781602001600182028036833780820191505090505b5090505b600085146123f15760018261237d9190613782565b9150600a8561238c9190613e54565b603061239891906137b6565b60f81b8183815181106123ae576123ad613421565b5b60200101907effffffffffffffffffffffffffffffffffffffffffffffffffffffffffffff1916908160001a905350600a856123ea9190613e23565b9450612368565b8093505050505b919050565b600073ffffffffffffffffffffffffffffffffffffffff168273ffffffffffffffffffffffffffffffffffffffff16141561246d576040517f08c379a000000000000000000000000000000000000000000000000000000000815260040161246490613ed1565b60405180910390fd5b61247681610f90565b156124b6576040517f08c379a00000000000000000000000000000000000000000000000000000000081526004016124ad90613f3d565b60405180910390fd5b6124c260008383611968565b6001600360008473ffffffffffffffffffffffffffffffffffffffff1673ffffffffffffffffffffffffffffffffffffffff168152602001908152602001600020600082825461251291906137b6565b92505081905550816002600083815260200190815260200160002060006101000a81548173ffffffffffffffffffffffffffffffffffffffff021916908373ffffffffffffffffffffffffffffffffffffffff160217905550808273ffffffffffffffffffffffffffffffffffffffff16600073ffffffffffffffffffffffffffffffffffffffff167fddf252ad1be2c89b69c2b068fc378daa952ba7f163c4a11628f55a4df523b3ef60405160405180910390a46125d36000838361196d565b5050565b60007f01ffc9a7000000000000000000000000000000000000000000000000000000007bffffffffffffffffffffffffffffffffffffffffffffffffffffffff1916827bffffffffffffffffffffffffffffffffffffffffffffffffffffffff1916149050919050565b82805461264d90613017565b90600052602060002090601f01602090048101928261266f57600085556126b6565b82601f1061268857805160ff19168380011785556126b6565b828001600101855582156126b6579182015b828111156126b557825182559160200191906001019061269a565b5b5090506126c391906126c7565b5090565b5b808211156126e05760008160009055506001016126c8565b5090565b6000604051905090565b600080fd5b600080fd5b60007fffffffff0000000000000000000000000000000000000000000000000000000082169050919050565b61272d816126f8565b811461273857600080fd5b50565b60008135905061274a81612724565b92915050565b600060208284031215612766576127656126ee565b5b60006127748482850161273b565b91505092915050565b60008115159050919050565b6127928161277d565b82525050565b60006020820190506127ad6000830184612789565b92915050565b600081519050919050565b600082825260208201905092915050565b60005b838110156127ed5780820151818401526020810190506127d2565b838111156127fc576000848401525b50505050565b6000601f19601f8301169050919050565b600061281e826127b3565b61282881856127be565b93506128388185602086016127cf565b61284181612802565b840191505092915050565b600060208201905081810360008301526128668184612813565b905092915050565b6000819050919050565b6128818161286e565b811461288c57600080fd5b50565b60008135905061289e81612878565b92915050565b6000602082840312156128ba576128b96126ee565b5b60006128c88482850161288f565b91505092915050565b600073ffffffffffffffffffffffffffffffffffffffff82169050919050565b60006128fc826128d1565b9050919050565b61290c816128f1565b82525050565b60006020820190506129276000830184612903565b92915050565b612936816128f1565b811461294157600080fd5b50565b6000813590506129538161292d565b92915050565b600080604083850312156129705761296f6126ee565b5b600061297e85828601612944565b925050602061298f8582860161288f565b9150509250929050565b6000806000606084860312156129b2576129b16126ee565b5b60006129c086828701612944565b93505060206129d186828701612944565b92505060406129e28682870161288f565b9150509250925092565b6000819050919050565b6129ff816129ec565b8114612a0a57600080fd5b50565b600081359050612a1c816129f6565b92915050565b600060208284031215612a3857612a376126ee565b5b6000612a4684828501612a0d565b91505092915050565b612a58816129ec565b82525050565b6000602082019050612a736000830184612a4f565b92915050565b60008060408385031215612a9057612a8f6126ee565b5b6000612a9e85828601612a0d565b9250506020612aaf85828601612944565b9150509250929050565b600080fd5b600080fd5b600080fd5b60008083601f840112612ade57612add612ab9565b5b8235905067ffffffffffffffff811115612afb57612afa612abe565b5b602083019150836020820283011115612b1757612b16612ac3565b5b9250929050565b60008083601f840112612b3457612b33612ab9565b5b8235905067ffffffffffffffff811115612b5157612b50612abe565b5b602083019150836020820283011115612b6d57612b6c612ac3565b5b9250929050565b60008060008060408587031215612b8e57612b8d6126ee565b5b600085013567ffffffffffffffff811115612bac57612bab6126f3565b5b612bb887828801612ac8565b9450945050602085013567ffffffffffffffff811115612bdb57612bda6126f3565b5b612be787828801612b1e565b925092505092959194509250565b600060208284031215612c0b57612c0a6126ee565b5b6000612c1984828501612944565b91505092915050565b612c2b8161286e565b82525050565b6000602082019050612c466000830184612c22565b92915050565b60008060408385031215612c6357612c626126ee565b5b6000612c7185828601612a0d565b9250506020612c828582860161288f565b9150509250929050565b612c958161277d565b8114612ca057600080fd5b50565b600081359050612cb281612c8c565b92915050565b60008060408385031215612ccf57612cce6126ee565b5b6000612cdd85828601612944565b9250506020612cee85828601612ca3565b9150509250929050565b600080fd5b7f4e487b7100000000000000000000000000000000000000000000000000000000600052604160045260246000fd5b612d3582612802565b810181811067ffffffffffffffff82111715612d5457612d53612cfd565b5b80604052505050565b6000612d676126e4565b9050612d738282612d2c565b919050565b600067ffffffffffffffff821115612d9357612d92612cfd565b5b612d9c82612802565b9050602081019050919050565b82818337600083830152505050565b6000612dcb612dc684612d78565b612d5d565b905082815260208101848484011115612de757612de6612cf8565b5b612df2848285612da9565b509392505050565b600082601f830112612e0f57612e0e612ab9565b5b8135612e1f848260208601612db8565b91505092915050565b60008060008060808587031215612e4257612e416126ee565b5b6000612e5087828801612944565b9450506020612e6187828801612944565b9350506040612e728782880161288f565b925050606085013567ffffffffffffffff811115612e9357612e926126f3565b5b612e9f87828801612dfa565b91505092959194509250565b600067ffffffffffffffff821115612ec657612ec5612cfd565b5b612ecf82612802565b9050602081019050919050565b6000612eef612eea84612eab565b612d5d565b905082815260208101848484011115612f0b57612f0a612cf8565b5b612f16848285612da9565b509392505050565b600082601f830112612f3357612f32612ab9565b5b8135612f43848260208601612edc565b91505092915050565b60008060408385031215612f6357612f626126ee565b5b6000612f7185828601612944565b925050602083013567ffffffffffffffff811115612f9257612f916126f3565b5b612f9e85828601612f1e565b9150509250929050565b60008060408385031215612fbf57612fbe6126ee565b5b6000612fcd85828601612944565b9250506020612fde85828601612944565b9150509250929050565b7f4e487b7100000000000000000000000000000000000000000000000000000000600052602260045260246000fd5b6000600282049050600182168061302f57607f821691505b6020821081141561304357613042612fe8565b5b50919050565b7f4552433732313a20617070726f76656420717565727920666f72206e6f6e657860008201527f697374656e7420746f6b656e0000000000000000000000000000000000000000602082015250565b60006130a5602c836127be565b91506130b082613049565b604082019050919050565b600060208201905081810360008301526130d481613098565b9050919050565b7f4552433732313a20617070726f76616c20746f2063757272656e74206f776e6560008201527f7200000000000000000000000000000000000000000000000000000000000000602082015250565b60006131376021836127be565b9150613142826130db565b604082019050919050565b600060208201905081810360008301526131668161312a565b9050919050565b7f4552433732313a20617070726f76652063616c6c6572206973206e6f74206f7760008201527f6e6572206e6f7220617070726f76656420666f7220616c6c0000000000000000602082015250565b60006131c96038836127be565b91506131d48261316d565b604082019050919050565b600060208201905081810360008301526131f8816131bc565b9050919050565b7f4552433732313a207472616e736665722063616c6c6572206973206e6f74206f60008201527f776e6572206e6f7220617070726f766564000000000000000000000000000000602082015250565b600061325b6031836127be565b9150613266826131ff565b604082019050919050565b6000602082019050818103600083015261328a8161324e565b9050919050565b7f416363657373436f6e74726f6c3a2063616e206f6e6c792072656e6f756e636560008201527f20726f6c657320666f722073656c660000000000000000000000000000000000602082015250565b60006132ed602f836127be565b91506132f882613291565b604082019050919050565b6000602082019050818103600083015261331c816132e0565b9050919050565b7f4552433732313a206f776e657220717565727920666f72206e6f6e657869737460008201527f656e7420746f6b656e0000000000000000000000000000000000000000000000602082015250565b600061337f6029836127be565b915061338a82613323565b604082019050919050565b600060208201905081810360008301526133ae81613372565b9050919050565b7f6d69736d6174636820696e206c656e6774680000000000000000000000000000600082015250565b60006133eb6012836127be565b91506133f6826133b5565b602082019050919050565b6000602082019050818103600083015261341a816133de565b9050919050565b7f4e487b7100000000000000000000000000000000000000000000000000000000600052603260045260246000fd5b600080fd5b600080fd5b600080fd5b6000808335600160200384360303811261347c5761347b613450565b5b80840192508235915067ffffffffffffffff82111561349e5761349d613455565b5b6020830192506001820236038313156134ba576134b961345a565b5b509250929050565b7f4e487b7100000000000000000000000000000000000000000000000000000000600052601160045260246000fd5b60006134fc8261286e565b91507fffffffffffffffffffffffffffffffffffffffffffffffffffffffffffffffff82141561352f5761352e6134c2565b5b600182019050919050565b7f4552433732313a2062616c616e636520717565727920666f7220746865207a6560008201527f726f206164647265737300000000000000000000000000000000000000000000602082015250565b6000613596602a836127be565b91506135a18261353a565b604082019050919050565b600060208201905081810360008301526135c581613589565b9050919050565b7f4552433732313a206f70657261746f7220717565727920666f72206e6f6e657860008201527f697374656e7420746f6b656e0000000000000000000000000000000000000000602082015250565b6000613628602c836127be565b9150613633826135cc565b604082019050919050565b600060208201905081810360008301526136578161361b565b9050919050565b7f4552433732313a207472616e736665722066726f6d20696e636f72726563742060008201527f6f776e6572000000000000000000000000000000000000000000000000000000602082015250565b60006136ba6025836127be565b91506136c58261365e565b604082019050919050565b600060208201905081810360008301526136e9816136ad565b9050919050565b7f4552433732313a207472616e7366657220746f20746865207a65726f2061646460008201527f7265737300000000000000000000000000000000000000000000000000000000602082015250565b600061374c6024836127be565b9150613757826136f0565b604082019050919050565b6000602082019050818103600083015261377b8161373f565b9050919050565b600061378d8261286e565b91506137988361286e565b9250828210156137ab576137aa6134c2565b5b828203905092915050565b60006137c18261286e565b91506137cc8361286e565b9250827fffffffffffffffffffffffffffffffffffffffffffffffffffffffffffffffff03821115613801576138006134c2565b5b828201905092915050565b7f4552433732313a20617070726f766520746f2063616c6c657200000000000000600082015250565b60006138426019836127be565b915061384d8261380c565b602082019050919050565b6000602082019050818103600083015261387181613835565b9050919050565b7f4552433732313a207472616e7366657220746f206e6f6e20455243373231526560008201527f63656976657220696d706c656d656e7465720000000000000000000000000000602082015250565b60006138d46032836127be565b91506138df82613878565b604082019050919050565b60006020820190508181036000830152613903816138c7565b9050919050565b7f45524337323155524953746f726167653a2055524920717565727920666f722060008201527f6e6f6e6578697374656e7420746f6b656e000000000000000000000000000000602082015250565b60006139666031836127be565b91506139718261390a565b604082019050919050565b6000602082019050818103600083015261399581613959565b9050919050565b600081905092915050565b60006139b2826127b3565b6139bc818561399c565b93506139cc8185602086016127cf565b80840191505092915050565b60006139e482856139a7565b91506139f082846139a7565b91508190509392505050565b7f45524337323155524953746f726167653a2055524920736574206f66206e6f6e60008201527f6578697374656e7420746f6b656e000000000000000000000000000000000000602082015250565b6000613a58602e836127be565b9150613a63826139fc565b604082019050919050565b60006020820190508181036000830152613a8781613a4b565b9050919050565b7f416363657373436f6e74726f6c3a206163636f756e7420000000000000000000600082015250565b6000613ac460178361399c565b9150613acf82613a8e565b601782019050919050565b7f206973206d697373696e6720726f6c6520000000000000000000000000000000600082015250565b6000613b1060118361399c565b9150613b1b82613ada565b601182019050919050565b6000613b3182613ab7565b9150613b3d82856139a7565b9150613b4882613b03565b9150613b5482846139a7565b91508190509392505050565b600081519050919050565b600082825260208201905092915050565b6000613b8782613b60565b613b918185613b6b565b9350613ba18185602086016127cf565b613baa81612802565b840191505092915050565b6000608082019050613bca6000830187612903565b613bd76020830186612903565b613be46040830185612c22565b8181036060830152613bf68184613b7c565b905095945050505050565b600081519050613c1081612724565b92915050565b600060208284031215613c2c57613c2b6126ee565b5b6000613c3a84828501613c01565b91505092915050565b7f4552433732314d657461646174613a2055524920717565727920666f72206e6f60008201527f6e6578697374656e7420746f6b656e0000000000000000000000000000000000602082015250565b6000613c9f602f836127be565b9150613caa82613c43565b604082019050919050565b60006020820190508181036000830152613cce81613c92565b9050919050565b6000613ce08261286e565b9150613ceb8361286e565b9250817fffffffffffffffffffffffffffffffffffffffffffffffffffffffffffffffff0483118215151615613d2457613d236134c2565b5b828202905092915050565b6000613d3a8261286e565b91506000821415613d4e57613d4d6134c2565b5b600182039050919050565b7f537472696e67733a20686578206c656e67746820696e73756666696369656e74600082015250565b6000613d8f6020836127be565b9150613d9a82613d59565b602082019050919050565b60006020820190508181036000830152613dbe81613d82565b9050919050565b7f4e487b7100000000000000000000000000000000000000000000000000000000600052603160045260246000fd5b7f4e487b7100000000000000000000000000000000000000000000000000000000600052601260045260246000fd5b6000613e2e8261286e565b9150613e398361286e565b925082613e4957613e48613df4565b5b828204905092915050565b6000613e5f8261286e565b9150613e6a8361286e565b925082613e7a57613e79613df4565b5b828206905092915050565b7f4552433732313a206d696e7420746f20746865207a65726f2061646472657373600082015250565b6000613ebb6020836127be565b9150613ec682613e85565b602082019050919050565b60006020820190508181036000830152613eea81613eae565b9050919050565b7f4552433732313a20746f6b656e20616c7265616479206d696e74656400000000600082015250565b6000613f27601c836127be565b9150613f3282613ef1565b602082019050919050565b60006020820190508181036000830152613f5681613f1a565b905091905056fea26469706673582212202232e4c0540d861d1992d93e788fc2750a4330a9b8b602d1ba23f428b0d7c18b64736f6c634300080a0033",
  "linkReferences": {},
  "deployedLinkReferences": {}
}